:020000040800F2
:1000000000500020E92800081D2400081F240008D3
:1000100021240008232400082524000800000000F3
:10002000000000000000000000000000272400087D
:1000300029240008000000002B2400082D240008BB
:100040003129000831290008312900083129000828
:100050003129000831290008312900083129000818
:100060003129000831290008312900083524000809
:1000700031290008312900083129000831290008F8
:1000800031290008312900083129000831290008E8
:1000900031290008312900083129000831290008D8
:1000A00031290008312900083129000831290008C8
:1000B00045240008592400086D240008312900084F
:1000C00031290008312900083129000831290008A8
:1000D000312900088D240008312900083129000841
:1000E00031290008312900083129000800000000EA
:1000F0000000000000000000000000000000000000
:0C01000000000000000000005FF808F1A3
:10010C0010B5054C237833B9044B13B10448AFF345
:10011C0000800123237010BD80000020000000002F
:10012C00AC31000808B5034B1BB103490348AFF3CE
:10013C00008008BD0000000084000020AC310008E5
:10014C0010B504460E4B18784FF47A73B3FBF0F3EA
:10015C000C4A1068B0FBF3F000F000FB68B90F2CF0
:10016C0001D901200AE0002221464FF0FF3000F0B7
:10017C00B5FA034B5C60002000E0012010BD00BF0D
:10018C00000000201000002008B5074A136843F057
:10019C0010031360032000F08FFA0020FFF7D0FF4C
:1001AC0002F032F8002008BD00200240034A11681A
:1001BC00034B1B780B441360704700BFB00000204A
:1001CC0000000020014B1868704700BFB0000020F1
:1001DC0038B50446FFF7F6FF0546B4F1FF3F02D0F1
:1001EC00044B1B781C44FFF7EDFF401BA042FAD3D5
:1001FC0038BD00BF00000020704708B5436A9A6AFA
:10020C0012F0500F03D01B6A1B6B984708BD9A6AFB
:10021C0042F400729A621A68926802F46022B2F593
:10022C00602F03D01846FFF7E7FFEFE7DA68002AE4
:10023C00F8D19A6A22F480729A629A6A12F4805FF8
:10024C00F0D19A6A42F001029A62EBE7704708B566
:10025C00406AFFF7FBFF08BD704708B5406A836A28
:10026C0043F040038362C36A43F00403C362FFF7A5
:10027C00F3FF08BD30B482B00023019390F8243012
:10028C00012B00F08B800246012380F824304B6850
:10029C00062B29D80568686B03EB8303053B1F24E9
:1002AC009C4020EA04000C6804FA03F303436B63DC
:1002BC000B68092B38D91568E86803EB43031E3B20
:1002CC0007249C4020EA04008C6804FA03F30343DF
:1002DC00EB600B68103B012B34D90020002382F813
:1002EC00243002B030BC70470C2B0ED80568286B3C
:1002FC0003EB8303233B1F249C4020EA04000C687F
:10030C0004FA03F303432B63D2E70568E86A03EBB3
:10031C008303413B1F249C4020EA04000C6804FA30
:10032C0003F30343EB62C3E71568286903EB43034C
:10033C0007249C4020EA04008C6804FA03F303436E
:10034C002B61C6E713681648834205D0936A43F0C5
:10035C00200393620120C1E7986810F4000F1BD1B1
:10036C00986840F4000098600B68102B01D00020B6
:10037C00B4E70C4B1B680C49A1FB03139B0C03EB60
:10038C0083035900019102E0019B013B0193019B06
:10039C00002BF9D10020A1E700209FE70220A0E765
:1003AC00002401401000002083DE1B4330B583B0D5
:1003BC000023019303689A6812F0010F2ED19A68FA
:1003CC0042F001029A60174B1B68174AA2FB0323E9
:1003DC009B0C019302E0019B013B0193019B002BC1
:1003EC00F9D10446FFF7EEFE054623689B6813F02F
:1003FC00010F11D1FFF7E6FE401B0228F5D9A36AC5
:10040C0043F01003A362E36A43F00103E3620023A9
:10041C0084F82430012002E0002000E0002003B02A
:10042C0030BD00BF1000002083DE1B43F8B504680C
:10043C00454DAC425BD0454B9C4258D090F8244083
:10044C00012C7ED016460D460446012380F824303C
:10045C00FFF7ACFF074600286ED1A36A23F4706344
:10046C0023F0010343F48073A3622268374B9A4252
:10047C0044D0A36A23F48013A362536813F4806FEF
:10048C0005D0A36A23F4405343F48053A362A36AB8
:10049C0013F4805F48D0E36A23F00603E362002381
:1004AC0084F82430236A2A4A9A62236A294ADA6237
:1004BC00236A294A1A6323686FF002021A602268C1
:1004CC00936843F480739360216833462A464C3119
:1004DC00206A00F0A5F92268936803F46023B3F551
:1004EC00602F24D0936843F48013936027E0164B5D
:1004FC005B6813F4702FA1D0012720E0A3F5806373
:10050C005B6813F4702FB4D0A36A43F48013A36216
:10051C000D4B5B6813F4806FB9D0A36A23F440537E
:10052C0043F48053A362B2E70023E362B7E7936816
:10053C0043F4A003936002E0002384F8243038468F
:10054C00F8BD0227FBE700BF002401400028014052
:10055C00070200085B0200086702000838B5036850
:10056C009A6812F0010F01D1002038BD04469A6838
:10057C0022F001029A60FFF725FE054623689B686E
:10058C0013F0010F0ED0FFF71DFE401B0228F5D90A
:10059C00A36A43F01003A362E36A43F00103E3622E
:1005AC000120E2E70020E0E700287FD038B50446C0
:1005BC00836A002B33D02046FFF7D0FFA36A13F0D9
:1005CC0010036DD100286BD1A26A22F4885222F05C
:1005DC00020242F00202A2626268E1690A43E56823
:1005EC0042EA4502A168B1F5807F21D001291CD0D7
:1005FC00616901291FD02568696821F469410B43A1
:10060C006B6021688D682A4B2B4013438B60A36869
:10061C00B3F5807F20D0012B1ED000211FE0C362D8
:10062C0080F8243001F012FEC5E74FF48073DFE749
:10063C004FF48073DCE735B9A169013943EA4133E2
:10064C0043F40063D7E7A16A41F02001A162E16A9B
:10065C0041F00101E162CEE72369013B19052568F0
:10066C00EB6A23F470030B43EB6223689968114B1C
:10067C000B409A420BD0A36A23F0120343F01003F1
:10068C00A362E36A43F00103E36201200DE000235F
:10069C00E362A36A23F0030343F00103A36204E0C3
:1006AC00A36A43F01003A362012038BD01207047F8
:1006BC00FDF7E1FFFE0E1FFF074AD36823F4E0634A
:1006CC001B041B0C000200F4E060184340F0BF60F8
:1006DC0040F40030D060704700ED00E030B4174BB0
:1006EC00DB68C3F30223C3F10704042C28BF0424E2
:1006FC001D1D062D18D9033B4FF0FF3505FA04F4E8
:10070C0021EA0401994005FA03F322EA0303194391
:10071C0000280BDB0901C9B200F1604000F5614013
:10072C0080F8001330BC70470023E5E700F00F00A1
:10073C000901C9B2024B1954F4E700BF00ED00E007
:10074C0014ED00E000F01F02400901239340024A1F
:10075C0042F82030704700BF00E100E00138B0F1F2
:10076C00807F0AD2064B5860064AF02182F823108B
:10077C000020986007221A6070470120704700BF64
:10078C0010E000E000ED00E070B4066CC56B0124D5
:10079C00B4406C60046863604368102B05D0036838
:1007AC0099600368DA6070BC704703689A600368EC
:1007BC00D960F8E760B310B402460168154B0B44DE
:1007CC001548A0FB03031B099B001364134BD36355
:1007DC00022382F82130086820F47F5020F030008A
:1007EC00536894682343D46823431469234354699E
:1007FC00234394692343D469234303430B600020B0
:10080C009063012382F8213082F8200010BC7047DD
:10081C0001207047F8FFFDBFCDCCCCCC00000240CE
:10082C0038B590F82040012C32D0012480F82040BB
:10083C0090F82140012C04D0002380F820300220B5
:10084C0038BD0446022084F821000020A0632568EE
:10085C00286820F0010028602046FFF795FFE36A26
:10086C005BB12268136843F00E03136022681368AF
:10087C0043F0010313600020E2E72268136823F0C1
:10088C00040313602268136843F00A031360EDE756
:10089C000220D5E708B590F82130022B03D00423B1
:1008AC008363012008BD0268136823F00E031360F4
:1008BC000268136823F0010313600368194A93421A
:1008CC0014D0143293421FD0143293421ED01432DF
:1008DC0093421ED0143293421ED01432934202D053
:1008EC004FF0807203E04FF4801200E001220E4BB7
:1008FC005A60012380F82130002380F82030436BAC
:10090C006BB198470020CDE71022F0E74FF48072CE
:10091C00EDE74FF48052EAE74FF48032E7E700202E
:10092C00C0E700BF080002400000024038B5C36BAE
:10093C001A6804682568016C04238B40134235D077
:10094C0015F0040F32D0236813F0200F03D1236865
:10095C0023F0040323600368434A934214D01432F7
:10096C00934218D01432934217D01432934217D0BA
:10097C001432934217D01432934202D04FF080625B
:10098C0003E04FF4800200E00422384B5A60C36A43
:10099C0003B1984738BD4022F7E74FF48062F4E783
:1009AC004FF48042F1E74FF48022EEE702238B40B4
:1009BC0013423CD015F0020F39D0236813F0200FEE
:1009CC0006D1236823F00A032360012380F8213029
:1009DC000368254A934214D0143293421CD014322B
:1009EC0093421BD0143293421BD0143293421BD02F
:1009FC001432934202D04FF0007203E04FF4001215
:100A0C0000E00222194B5A60002380F82030836AE0
:100A1C00002BBFD09847BDE72022F3E74FF40072BC
:100A2C00F0E74FF40052EDE74FF40032EAE7082309
:100A3C0003FA01F11142ADD015F0080FAAD02368CA
:100A4C0023F00E032360026CC16B012303FA02F244
:100A5C004A60836380F82130002380F82030036BD8
:100A6C00002B97D0984795E7080002400000024001
:100A7C00F0B482B000263546A1E0002C59D0012CF0
:100A8C0000D1CE68FF2B68D88446FF2B68D8AC0009
:100A9C00DCF800200F27A74022EA070206FA04F42C
:100AAC002243CCF800204A6812F0805F00F0868068
:100ABC005E4A946944F001049461926902F0010267
:100ACC000192019AAC08A71C594A52F8272005F04C
:100ADC000307BF004FF00F0C0CFA07FC22EA0C0CBA
:100AEC00544A904242D002F5806290427FD002F587
:100AFC00806290427DD002F58062904234D0042214
:100B0C0035E04D4FBC4214D00BD94C4FBC4210D0E9
:100B1C0007F58037BC420CD0A7F58017BC42B1D189
:100B2C0007E0A7F58017BC4203D007F58037BC421D
:100B3C00A8D18C687CB1012C08D042610826A1E7B1
:100B4C00CE6808369EE7CE680C369BE70261082615
:100B5C0098E7002696E7042694E700F1040C94E746
:100B6C00A5F10804A40093E7032200E00022BA4098
:100B7C0042EA0C0202342E4F47F824204A6812F441
:100B8C00803F38D02E4C22681A4322604A6812F4F7
:100B9C00003F36D02A4C62681A4362604A6812F4ED
:100BAC00801F34D0264CA2681A43A2604A6812F403
:100BBC00001F32D0224CE2681343E36001350F2D45
:100BCC0031D80122AA400B6813409A42F6D14C68E6
:100BDC00122CB8D095D8022CB2D07FF64EAF032C85
:100BEC00B7D0112C7FF44EAFCE6804364AE7012201
:100BFC00BDE70222BBE7124C226822EA0302226004
:100C0C00C4E70F4C626822EA03026260C6E70C4C30
:100C1C00A26822EA0302A260C8E7094CE26822EA51
:100C2C000303E360CAE702B0F0BC70470010024057
:100C3C0000000140000801400000211000003110AC
:100C4C00000401408368194201D100207047012043
:100C5C00704712B909040161704701617047C3689C
:100C6C005940C1607047000082B0084B1B68084AAD
:100C7C00A2FB03235B0A00FB03F0019000BF019B66
:100C8C005A1E0192002BF9D102B0704710000020BF
:100C9C00D34D621070B582B00446036813F0010F97
:100CAC002CD0AB4B5B6803F00C03042B1DD0A84B72
:100CBC005B6803F00C03082B12D06368B3F5803F1C
:100CCC0041D0002B55D103F1804303F504331A684E
:100CDC0022F480321A601A6822F480221A6037E0FB
:100CEC009B4B5B6813F4803FE7D0994B1B6813F464
:100CFC00003F03D06368002B00F0AE81236813F033
:100D0C00020F76D0924B5B6813F00C0F5FD0904BB8
:100D1C005B6803F00C03082B54D02369002B00F004
:100D2C008A808C4B01221A60FFF74CFA0546884BDF
:100D3C001B6813F0020F75D1FFF744FA401B022811
:100D4C00F5D903208BE1824A136843F48033136096
:100D5C00636843B3FFF736FA05467D4B1B6813F403
:100D6C00003FCBD1FFF72EFA401B6428F5D90320A6
:100D7C0075E1B3F5A02F09D0754B1A6822F48032B7
:100D8C001A601A6822F480221A60E1E703F18043AA
:100D9C00A3F53C331A6842F480221A601A6842F4B4
:100DAC0080321A60D4E7FFF70DFA0546684B1B68D2
:100DBC0013F4003FA2D0FFF705FA401B6428F5D9C5
:100DCC0003204CE1624B5B6813F4803FA5D1604B70
:100DDC001B6813F0020F04D02369012B01D00120F2
:100DEC003DE15B4A136823F0F803616943EAC103F0
:100DFC001360236813F0080F32D0A369002B5BD06B
:100E0C00554B01221A60FFF7DDF90546504B5B6A22
:100E1C0013F0020F21D1FFF7D5F9401B0228F5D9A9
:100E2C0003201CE14A4A136823F0F803616943EA82
:100E3C00C1031360DDE7474B00221A60FFF7C2F9CC
:100E4C000546434B1B6813F0020FD2D0FFF7BAF9DB
:100E5C00401B0228F5D9032001E10120FFF704FF14
:100E6C00236813F0040F00F09780394BDB6913F003
:100E7C00805F33D1364BDA6942F08052DA61DB693C
:100E8C0003F080530193019B0125344B1B6813F431
:100E9C00807F25D0E368012B36D0002B4CD103F199
:100EAC00804303F504331A6A22F001021A621A6AAB
:100EBC0022F004021A622CE0274B00221A60FFF782
:100ECC0081F90546224B5B6A13F0020FC8D0FFF77D
:100EDC0079F9401B0228F5D90320C0E00025D4E79E
:100EEC001E4A136843F480731360FFF76BF90646D0
:100EFC001A4B1B6813F4807FCCD1FFF763F9801B6E
:100F0C006428F5D90320AAE0114A136A43F00103BF
:100F1C001362E36873B3FFF755F906460C4B1B6A73
:100F2C0013F0020F37D1FFF74DF9801B41F28833D4
:100F3C009842F3D9032092E0052B11D0044B1A6A86
:100F4C0022F001021A621A6A22F004021A62E0E725
:100F5C0000100240000042428004424200700040F7
:100F6C00414B1A6A42F004021A621A6A42F00102F8
:100F7C001A62CEE7FFF726F906463B4B1B6A13F0C5
:100F8C00020F08D0FFF71EF9801B41F288339842FC
:100F9C00F3D9032063E0E5B9E369002B5ED0324A54
:100FAC00526802F00C02082A5BD0022B17D02F4B90
:100FBC0000221A60FFF706F904462B4B1B6813F04E
:100FCC00007F47D0FFF7FEF8001B0228F5D903205D
:100FDC0045E0254AD36923F08053D361DCE7234BEA
:100FEC0000221A60FFF7EEF805461F4B1B6813F042
:100FFC00007F06D0FFF7E6F8401B0228F5D9032046
:10100C002DE0236AB3F5803F1AD017494B6823F4BF
:10101C007413226A606A024313434B60134B012220
:10102C001A60FFF7CFF804460F4B1B6813F0007FD4
:10103C000ED1FFF7C7F8001B0228F5D903200EE0EC
:10104C00094A536823F40033A1680B435360DCE76F
:10105C00002004E0002002E0012000E0002002B0AB
:10106C0070BD0120FBE700BF00100240600042424F
:10107C0010B487B0164C94E80F000DF1180C0CE965
:10108C000F00238AADF80430124B5B6803F00C029E
:10109C00082A1AD1C3F38342624412F8102C13F4B9
:1010AC00803F05D10C4800FB02F007B010BC704724
:1010BC00084B5B68C3F34043634413F8143C074884
:1010CC0000FB02F0B0FBF3F0EFE70448EDE700BFE4
:1010DC00C43100080010024000093D0000127A00E3
:1010EC00624B1B6803F007038B420CD25F4A1368F8
:1010FC0023F007030B431360136803F007038B42C1
:10110C0001D00120704770B5036813F0020F17D09F
:10111C0013F0040F04D0564A536843F4E063536051
:10112C00036813F0080F04D0514A536843F460531A
:10113C0053604F4A536823F0F00384682343536091
:10114C000D460446036813F0010F52D04368012B7F
:10115C0023D0022B28D0464A126812F0020F00F05E
:10116C00828043494A6822F0030213434B60FFF725
:10117C0029F806466368012B1DD0022B2AD03C4B64
:10118C005B6813F00C0F34D0FFF71CF8801B41F296
:10119C0088339842F3D9032064E0354A126812F47C
:1011AC00003FDED101205DE0314A126812F0007F71
:1011BC00D7D1012056E02E4B5B6803F00C03042BB7
:1011CC0017D0FEF7FFFF801B41F288339842F2D90B
:1011DC00032047E0264B5B6803F00C03082B08D078
:1011EC00FEF7F0FF801B41F288339842F2D90320BE
:1011FC0038E01E4B1B6803F00703AB420CD91B4AAB
:10120C00136823F007032B431360136803F00703E1
:10121C00AB4201D0012025E0236813F0040F06D067
:10122C00134A536823F4E063E1680B43536023686B
:10123C0013F0080F07D00E4A536823F4605321694A
:10124C0043EAC1035360FFF713FF094B5B68C3F319
:10125C000313084AD35CD840074B18600020FEF7F4
:10126C006FFF002070BD0120FCE700BF0020024092
:10127C0000100240D831000810000020014B186803
:10128C00704700BF1000002008B5FFF7F7FF044BB4
:10129C005B68C3F30223034AD35CD84008BD00BF8C
:1012AC0000100240E831000808B5FFF7E7FF044BD7
:1012BC005B68C3F3C223034AD35CD84008BD00BFAC
:1012CC0000100240E831000870B582B00446036893
:1012DC0013F0010F34D03E4BDB6913F0805F48D123
:1012EC003B4BDA6942F08052DA61DB6903F08053E0
:1012FC000193019B0125374B1B6813F4807F3AD077
:10130C00334B1B6A13F4407311D0626802F44072C1
:10131C009A420CD02E4A136A23F440702E490126AF
:10132C000E6000260E60106213F0010F37D1284AB0
:10133C00136A23F4407361680B431362002D3FD191
:10134C00236813F0020F06D0214A536823F440435C
:10135C00A1680B435360236813F0100F35D01C4A5F
:10136C00536823F48003E1680B435360002002B000
:10137C0070BD0025BFE7174A136843F480731360F0
:10138C00FEF720FF0646134B1B6813F4807FB7D182
:10139C00FEF718FF801B6428F5D90320E7E7FEF75A
:1013AC0011FF06460A4B1B6A13F0020FBFD1FEF762
:1013BC0009FF801B41F288339842F3D90320D6E70A
:1013CC00D36923F08053D361BAE70020CFE700BF85
:1013DC0000100240007000404004424210B4036A06
:1013EC00046A24F001040462846924F0F00444EAE1
:1013FC00021223F00A030B438261036210BC704794
:10140C0010B4036A23F0100303628469036A24F4A2
:10141C00704444EA023223F0A00343EA01138261D0
:10142C00036210BC7047836823F0700341F007011E
:10143C0019438160704710B4846824F47F4442EAF5
:10144C0003230B432343836010BC70470268D368AB
:10145C0043F00103D3600268136843F00103136087
:10146C000020704790F83C30012B7DD010B504461D
:10147C00012380F83C30022380F83D3002689368E9
:10148C0023F47F4323F0770393600B68402B57D0F2
:10149C0010D9702B3ED01FD8502B47D0602B32D197
:1014AC00CA6849680068FFF7ABFF60212068FFF746
:1014BC00BAFF28E0102B4DD008D9202B4FD0302B61
:1014CC0021D130210068FFF7AEFF1CE0DBB9002111
:1014DC000068FFF7A8FF16E0B3F5805F0ED0B3F5F8
:1014EC00005F10D1CB684A6889680068FFF7A3FFDA
:1014FC002268936843F48043936004E00268936825
:10150C0023F007039360012384F83D30002084F816
:10151C003C0010BDCB684A6889680068FFF78BFFF8
:10152C002268936843F077039360ECE7CA684968D4
:10153C000068FFF753FF50212068FFF774FFE2E7C4
:10154C00CA6849680068FFF749FF40212068FFF727
:10155C006AFFD8E710210068FFF765FFD3E7202169
:10156C000068FFF760FFCEE70220704770477047B6
:10157C0070477047704710B5044603681A6912F03B
:10158C00020F11D0DA6812F0020F0DD06FF00202C8
:10159C001A610123037703689B6913F0030F70D062
:1015AC00FFF7E6FF0023237723681A6912F0040F74
:1015BC0012D0DA6812F0040F0ED06FF004021A6128
:1015CC000223237723689B6913F4407F5FD0204666
:1015DC00FFF7CEFF0023237723681A6912F0080F58
:1015EC0012D0DA6812F0080F0ED06FF008021A61F0
:1015FC00042323772368DB6913F0030F4ED02046B6
:10160C00FFF7B6FF0023237723681A6912F0100F37
:10161C0012D0DA6812F0100F0ED06FF010021A61AF
:10162C00082323772368DB6913F4407F3DD02046E1
:10163C00FFF79EFF0023237723681A6912F0010F2E
:10164C0003D0DA6812F0010F36D123681A6912F050
:10165C00800F03D0DA6812F0800F34D123681A6936
:10166C0012F0400F03D0DA6812F0400F32D1236829
:10167C001A6912F0200F03D0DA6812F0200F30D163
:10168C0010BDFFF774FF2046FFF773FF8AE7204673
:10169C00FFF76DFF2046FFF76CFF9BE72046FFF737
:1016AC0066FF2046FFF765FFACE72046FFF75FFFBC
:1016BC002046FFF75EFFBDE76FF001021A6120467E
:1016CC00FFF754FFC1E76FF080021A61204600F06B
:1016DC008CF8C3E76FF040021A612046FFF74AFF0F
:1016EC00C5E76FF020021A61204600F07DF8C7E7CD
:1016FC0003681B4A90420AD0B0F1804F07D0A2F584
:10170C009432904203D002F58062904203D123F0D0
:10171C0070034A681343124A90420AD0B0F1804FCA
:10172C0007D0A2F59432904203D002F58062904229
:10173C0003D123F44073CA68134323F080034A692E
:10174C00134303608B68C3620B688362044B98423B
:10175C0002D00123436170470B690363F9E700BFB3
:10176C00002C0140A8B110B5044690F83D305BB197
:10177C00022384F83D30211D2068FFF7B9FF0123B7
:10178C0084F83D30002010BD80F83C3000F0ACFDFA
:10179C00EEE70120704790F83C30012B22D030B49A
:1017AC00012280F83C20022380F83D3004686368F5
:1017BC0023F070036360046863680D682B436360F7
:1017CC000468A36823F08003A3600468A3684968D5
:1017DC000B43A36080F83D20002380F83C30184672
:1017EC0030BC704702207047704770470268D3685E
:1017FC0023F49073D3600268536923F0010353619F
:10180C00202380F83A30704790F83930DBB2212B26
:10181C002AD18368B3F5805F16D0036A5A1C026222
:10182C001A7803685A60C38C013B9BB2C384EBB932
:10183C000268D36823F08003D3600268D36843F056
:10184C004003D36000207047036A1B880268C3F30F
:10185C000803536003691BB9036A02330362E2E7AE
:10186C00036A01330362DEE70220704700207047F1
:10187C002DE9F84305460268136923F44053C16807
:10188C000B43136183680269134342691343016874
:10189C00CA6822F4B05222F00C021343CB600268E7
:1018AC00536923F4407381690B4353610268594BAC
:1018BC009A4257D0FFF7E8FC00EB800000EB800069
:1018CC006C68A400B0FBF4F4534FA7FB0434640918
:1018DC002601FFF7D9FC00EB800000EB80006C6860
:1018EC00A400B0FBF4F9FFF7CFFC00EB800000EB99
:1018FC0080006C68A400B0FBF4F4A7FB043464090A
:10190C004FF0640808FB149424013234A7FB043410
:10191C00640904F0F0043444FFF7B6FC00EB8000DB
:10192C0000EB80006E68B600B0FBF6F6FFF7ACFC7F
:10193C0000EB800000EB80006B689B00B0FBF3F0C9
:10194C00A7FB0030400908FB10684FEA081808F1A3
:10195C003208A7FB0837C7F343172B6827449F604F
:10196C00BDE8F883FFF7A0FC00EB800000EB8000E3
:10197C006C68A400B0FBF4F4274FA7FB0434640993
:10198C002601FFF791FC00EB800000EB80006C68F7
:10199C00A400B0FBF4F9FFF787FC00EB800000EB30
:1019AC0080006C68A400B0FBF4F4A7FB0434640959
:1019BC004FF0640808FB149424013234A7FB043460
:1019CC00640904F0F0043444FFF76EFC00EB800073
:1019DC0000EB80006E68B600B0FBF6F6FFF764FC17
:1019EC0000EB800000EB80006B689B00B0FBF3F019
:1019FC00A7FB0030400908FB10684FEA081808F1F3
:101A0C003208A7FB0837C7F343172B6827449F609E
:101A1C00A6E700BF003801401F85EB5158B310B545
:101A2C00044690F839300BB3242384F839302268FB
:101A3C00D36823F40053D3602046FFF719FF2268C4
:101A4C00136923F4904313612268536923F02A032A
:101A5C0053612268D36843F40053D3600020E063E1
:101A6C00202384F8393084F83A3010BD80F83830AF
:101A7C0000F08AFCD8E701207047704708B5016870
:101A8C00CB6823F04003CB60202380F83930FFF77C
:101A9C00F4FF002008BD704708B590F83A30DBB26F
:101AAC00222B45D18368B3F5805F0ED0036903BB4D
:101ABC0003685A68836A591C81621A70C38D013B92
:101ACC009BB2C385F3B1002033E0826A036943B94A
:101ADC0003685B68C3F308031380836A0233836271
:101AEC00ECE703685B68DBB21380836A01338362C3
:101AFC00E4E703685B68826A511C816203F07F0330
:101B0C001370DBE70268D36823F02003D36002680C
:101B1C00D36823F48073D3600268536923F0010304
:101B2C005361202380F83A30FFF7B5FF002000E026
:101B3C00022008BD7047000010B504460268136807
:101B4C00D168526913F00F0005D113F0200F02D0A9
:101B5C0011F0200F53D1002867D012F0010202D1EE
:101B6C0011F4907F61D013F0010F06D011F4807F37
:101B7C0003D0E06B40F00100E06313F0040F04D0DD
:101B8C001AB1E06B40F00200E06313F0020F04D0D6
:101B9C001AB1E06B40F00400E06313F0080F04D0BE
:101BAC001AB1E26B42F00802E263E26B002A48D001
:101BBC0013F0200F02D011F0200F24D123685B69A1
:101BCC0003F04003E26B12F0080F00D13BB3204648
:101BDC00FFF70CFE23685A6912F0400F1BD05A69AC
:101BEC0022F040025A61636B8BB11A4A5A63606BE4
:101BFC00FEF750FE28B3606B436B984721E02046FC
:101C0C00FFF74AFF1DE02046FFF746FFD6E72046C8
:101C1C00FFF790FF15E02046FFF78CFF11E0204600
:101C2C00FFF788FF0023E3630BE013F0800F02D073
:101C3C0011F0800F06D113F0400F02D011F0400FBD
:101C4C0004D110BD2046FFF7DFFDFAE72046FFF771
:101C5C0015FFF6E7651C000808B5406A0023C3852C
:101C6C00C384FFF767FF08BD38B5044600F00102D6
:101C7C004FF400410C48FEF7ECFF0C4DC4F340024E
:101C8C004FF480712846FEF7E4FFC4F380024FF452
:101C9C0000612846FEF7DDFFC4F3C0024FF480510B
:101CAC002846FEF7D6FF38BD000C01400008014065
:101CBC0038B504460D4600224FF400511E48FEF77D
:101CCC00C8FF8CBB00224FF480511B48FEF7C1FFAC
:101CDC002809FFF7C9FF184C01224FF48041204618
:101CEC00FEF7B7FF0120FEF773FA00224FF4804194
:101CFC002046FEF7AEFF0120FEF76AFA2846FFF7F2
:101D0C00B3FF01224FF480412046FEF7A2FF0120D1
:101D1C00FEF75EFA00224FF480412046FEF799FF51
:101D2C000120FEF755FA38BD01224FF480510248CC
:101D3C00FEF78FFFCCE700BF000C014010B5044646
:101D4C0003E001340120FFF7B3FF21780029F8D11B
:101D5C0010BD38B505460C4631B1012C0AD0022C09
:101D6C000FD0032C14D038BD80F080010020FFF779
:101D7C009FFFF2E7A5F14001C9B20020FFF798FFE1
:101D8C00EDE7A5F16C01C9B20020FFF791FFE8E780
:101D9C00A5F12C01C9B20020FFF78AFFE3E708B5D3
:101DAC0001210020FFF784FF08BD000008B50022C8
:101DBC004FF400510C48FEF74CFF33210020FFF785
:101DCC0077FF32210020FFF773FF28210020FFF757
:101DDC006FFF0C210020FFF76BFF06210020FFF79F
:101DEC0067FFFFF7DCFF08BD000C014000B587B0B2
:101DFC000246054901A800F0C1FD01A8FFF79EFFAE
:101E0C0007B05DF804FB00BFF031000870B5064662
:101E1C00072414E0114B9A5D2241114D02F001028E
:101E2C0040212846FEF715FF012280212846FEF7A7
:101E3C0010FF002280212846FEF70BFF013C002CEE
:101E4C00E8DA084C012211462046FEF702FF002278
:101E5C0001212046FEF7FDFE70BD00BF08000020EA
:101E6C0000080140000C01402DE9F04389B000242A
:101E7C000494059406940794334B9A6942F010022B
:101E8C009A619A6902F010020092009A9A6942F0E3
:101E9C0020029A619A6902F020020192019A9A69D1
:101EAC0042F004029A619A6902F004020292029AC8
:101EBC009A6942F008029A619B6903F00803039344
:101ECC00039B224F22464FF400513846FEF7C1FEC9
:101EDC00DFF87C9022464FF4CE514846FEF7B9FE0F
:101EEC00DFF8708022464FF683414046FEF7B1FE84
:101EFC004FF400530493012505950694022607968A
:101F0C0004A93846FEF7B4FD4FF4404304930594FE
:101F1C00069504A93846FEF7ABFD4FF4CE53049357
:101F2C0005950694079604A94846FEF7A1FD4FF6C1
:101F3C008343049305950694079604A94046FEF73F
:101F4C0097FD09B0BDE8F08300100240001001407D
:101F5C0000080140000C014000B583B00A4B5A69DF
:101F6C0042F001025A615B6903F001030193019B8A
:101F7C00002211460B20FEF7B1FB0B20FEF7E2FB13
:101F8C0003B05DF804FB00BF00100240F0B585B053
:101F9C000025019502950395144C154B23604FF4C5
:101FAC008073A3600126E66065614FF46023E361F2
:101FBC006560032727612046FEF7F6FA0195029625
:101FCC000723039301A92046FEF754F90196022535
:101FDC00029501A92046FEF74DF90195029701A93A
:101FEC002046FEF747F905B0F0BD00BFB400002055
:101FFC000024014008B50848084B03604FF4165301
:10200C00436000238360C36003610C2242618361DF
:10201C00C361FFF703FD08BD7401002000380140C7
:10202C0030B587B000240294039404940594009472
:10203C0001940F4D4FF080432B6048F69F436B602B
:10204C00AC600323EB602C61AC612846FFF78AFB84
:10205C004FF48053029302A92846FFF703FA009429
:10206C00019469462846FFF796FB07B030BD00BFC8
:10207C00FC01002030B587B0002402940394049432
:10208C000594009401940E4D0E4B2B6048F69F4323
:10209C006B60AC601323EB602C61AC612846FFF7DE
:1020AC0061FB4FF48053029302A92846FFF7DAF93B
:1020BC000094019469462846FFF76DFB07B030BDCC
:1020CC00F00000200008004030B587B000240294D6
:1020DC00039404940594009401940E4D0E4B2B60C4
:1020EC0048F69F436B60AC602723EB602C61AC61BE
:1020FC002846FFF737FB4FF48053029302A928467A
:10210C00FFF7B0F90094019469462846FFF743FBAA
:10211C0007B030BD300100200004004030B595B050
:10212C0000240C940D940F94109405940694079429
:10213C0008940994019402940394049401220A9241
:10214C004FF480330B930E920225119512934FF49A
:10215C00E01313930AA8FEF79DFD0F230593069534
:10216C0007944FF4806308930994294605A8FEF759
:10217C00B7FF01954FF40043039301A8FFF7A4F8B0
:10218C0015B030BD08B5FDF7FFFFFFF7C7FFFFF730
:10219C006BFEFFF7E1FEFFF7F9FEFFF72BFFFFF7F2
:1021AC003FFFFFF767FFFFF78FFF03220F49104830
:1021BC00FEF73CF9FFF7FAFD00F020FB0D48FFF7A6
:1021CC0045F90D48FFF742F90C48FFF73FF900F0CD
:1021DC0045FB03E000F042FBFFF7E1FD084B1B78E9
:1021EC00002BF7D000F058FBF8E700BFE40000200C
:1021FC00B4000020FC01002030010020F000002081
:10220C003C0200207047000082B00E4B9A6942F0ED
:10221C0001029A619A6902F001020092009ADA694D
:10222C0042F08052DA61DB6903F080530193019B29
:10223C00054A536823F0E06343F00073536002B027
:10224C00704700BF001002400000014010B586B07E
:10225C000023029303930493059302681E4B9A4246
:10226C0001D006B010BD044603F56C439A6942F4E4
:10227C0000729A619A6902F400720092009A9A694B
:10228C0042F004029A619B6903F004030193019BE1
:10229C00072302930323039302A91048FEF7E8FBDC
:1022AC000F48104B03600023436083608022C260A0
:1022BC004FF4007202614FF400624261202282618D
:1022CC00C361FEF777FA18B9054B23625C62C8E765
:1022DC00FFF798FFF8E700BF002401400008014019
:1022EC00B40100200800024000B585B00368B3F1CA
:1022FC00804F08D0214A934219D0214A934229D0C9
:10230C0005B05DF804FB03F50433DA6942F0010211
:10231C00DA61DB6903F001030193019B0022114692
:10232C001C20FEF7DBF91C20FEF70CFAE8E7154B36
:10233C00DA6942F00202DA61DB6903F0020302930C
:10234C00029B002211461D20FEF7C8F91D20FEF746
:10235C00F9F9D5E70B4BDA6942F00402DA61DB6973
:10236C0003F004030393039B002211461E20FEF787
:10237C00B5F91E20FEF7E6F9C2E700BF00040040E5
:10238C00000800400010024030B587B000230293D3
:10239C0003930493059302681B4B9A4201D007B038
:1023AC0030BD03F558439A6942F480429A619A69A8
:1023BC0002F480420092009A9A6942F004029A61F7
:1023CC009B6903F004030193019B4FF40073029388
:1023DC0002230393032305930C4D02A92846FEF711
:1023EC0047FB4FF48063029300240394049402A9E6
:1023FC002846FEF73DFB224621462520FEF76EF9C6
:10240C002520FEF79FF9CAE700380140000801407B
:10241C007047FEE7FEE7FEE7FEE770477047704740
:10242C0008B5FDF7C3FE08BD08B50248FEF77EFAF5
:10243C0008BD00BFB401002008B50348FFF79BF8A6
:10244C0000F06AF808BD00BFFC01002008B5034885
:10245C00FFF791F800F046F908BD00BF30010020ED
:10246C0008B50548FFF787F84FF400510348FEF70D
:10247C00F6FB00F085F908BDF000002000100140CB
:10248C0008B50248FFF758FB08BD00BF74010020D7
:10249C0008B503460B4A126842B10A4A1068034455
:1024AC006A46934206D8074A136008BD054A064996
:1024BC001160F2E700F038FA0C2303604FF0FF30A4
:1024CC00F3E700BF9C000020580200200F4B1A6855
:1024DC0042F001021A6059680D4A0A405A601A68A3
:1024EC0022F0847222F480321A601A6822F480225C
:1024FC001A605A6822F4FE025A604FF41F029A6066
:10250C00044B4FF000629A60704700BF001002400D
:10251C000000FFF800ED00E008B56A4B1A686A4B42
:10252C001B8803F164018A4202D2643B9A425BD855
:10253C00664A13785B001370654A13880133138065
:10254C00634B1A88614B9B889A4257D85F4B1B7818
:10255C00032B59D05B4B5A685B4B5B8803F16401CE
:10256C008A4202D2643B9A425ED8584A53785B0046
:10257C005370574A538801335380554B5A88534BE9
:10258C009B889A425AD8514B5B78032B5CD04D4BAD
:10259C009A684D4B9B8803F164018A4202D2643BDA
:1025AC009A4261D8494A93785B009370484A938861
:1025BC0001339380464B9A88444B9B889A425DD852
:1025CC00424B9B78032B5FD04FF480414148FEF780
:1025DC0039FB002868D13D4A93795B0093713B4BE2
:1025EC009B79032B67D008BD384A13785B0043F006
:1025FC0001031370364B00221A80A1E701228021BF
:10260C003548FEF726FBA1E7314B1A882F4B9B88E8
:10261C009A429FD2314A13780133137000228021E1
:10262C002D48FEF716FB95E7284A53785B0043F0DC
:10263C0001035370264B00225A809EE70122802111
:10264C002548FEF706FB9EE7214B5A881F4B9B88BB
:10265C009A429CD2214A5378013353700022802134
:10266C001D48FEF7F6FA92E7184A93785B0043F0A0
:10267C0001039370164B00229A809BE70122802164
:10268C001548FEF7E6FA9BE7114B9A880F4B9B888F
:10269C009A4299D2114A9378013393700022802187
:1026AC000D48FEF7D6FA8FE7084A93795B0043F0A2
:1026BC000103937193E70A4A137883F001031370B3
:1026CC0091E700BFE40000204C0200201400002021
:1026DC004402002000100140000C0140A400002026
:1026EC003C02002010B5244B1878FFF78FFB012219
:1026FC0002212248FEF7ADFA002301E001339BB220
:10270C0042F20F729342F9D91C4C0022022120464E
:10271C00FEF79FFA184B5878FFF778FB01224FF41D
:10272C0080612046FEF795FA002301E001339BB24D
:10273C0042F20F729342F9D9104C00224FF480618F
:10274C002046FEF786FA0C4B9878FFF75FFB0122C8
:10275C004FF400612046FEF77CFA002301E00133C0
:10276C009BB242F20F729342F9D900224FF40061EE
:10277C000248FEF76EFA10BDA4000020000C0140C8
:10278C00194B1B78012B07D0174B5B78012B03D00F
:10279C00154B9B78012B02D1144B01221A70134B51
:1027AC001B78012B07D00023114A1370114A1370A8
:1027BC00114A13707047104A13780133DBB213704F
:1027CC00632BF7D9643B13700A4A13780133DBB2DD
:1027DC0013703B2BEED9134600221A70044A13785F
:1027EC0001331370704700BFA40000204A02002080
:1027FC0071010020F80100207001002010B5FFF7D6
:10280C00CEFA1148FFF79AFA002416E00F4A52F854
:10281C0024000F490A6802440A6001339BB2B3F5E5
:10282C007A7FF3D30A4B1B680A4AA2FB03239B094A
:10283C00094A22F814300134E4B2022C03D80023E4
:10284C00034A1360EBE710BDF4310008E4000020EC
:10285C0040020020D34D62104C02002008B500212C
:10286C000846FFF776FA0948FFF768FA01210020BD
:10287C00FFF76FFA0648FFF761FA03210020FFF714
:10288C0068FA0448FFF75AFA08BD00BF083200087E
:10289C00183200082032000810B500210720FFF77D
:1028AC0058FA0A4B1878FFF7A1FA094C2046FFF7A3
:1028BC0045FA084B1878FFF799FA2046FFF73EFACD
:1028CC00054B1878FFF792FA10BD00BF710100207C
:1028DC002C320008F801002070010020002103E0D8
:1028EC000B4B5B58435004310A480B4B42189A422D
:1028FC00F6D30A4A02E0002342F8043B084B9A4202
:10290C00F9D3FFF7E3FD00F015F8FFF73BFC704738
:10291C006C320008000000208000002080000020A5
:10292C0058020020FEE70000014B1868704700BFFA
:10293C001C00002070B500250C4E0D4CA41BA410DF
:10294C00A54209D100F02CFC00250A4E0A4CA41B10
:10295C00A410A54205D170BD56F825309847013515
:10296C00EEE756F8253098470135F2E76432000857
:10297C006432000864320008683200080EB46FF04C
:10298C00004100B59CB01DAB0290069007910491DC
:10299C000848094953F8042B0591006802A90193D2
:1029AC0000F066F80022029B1A701CB05DF804EB74
:1029BC0003B070471C0000200802FFFF2DE9F04710
:1029CC008E6882469E420C469046994637D88A8934
:1029DC0012F4906F31D00223256809696F1A65696A
:1029EC0005EB450595FBF3F509F101033B449D42CD
:1029FC0038BF1D46530530D5294600F037FB064637
:102A0C0050B90C234FF0FF30CAF80030A38943F0C3
:102A1C004003A381BDE8F0873A46216900F0B6FA7D
:102A2C00A38923F4906343F08003A38126613E4481
:102A3C0026604E466561ED1BA5604E4500D94E469D
:102A4C0032464146206800F0ACFAA36800209B1B7C
:102A5C00A36023681E442660DCE72A4600F060FB76
:102A6C0006460028E2D12169504600F0B3FAC8E7C7
:102A7C002DE9F04F1D468B899DB01F0680460C46F4
:102A8C0016460FD50B696BB9402100F0EFFA2060A8
:102A9C00206128B90C23C8F800304FF0FF30C8E093
:102AAC00402363610023099320238DF829303023C0
:102ABC004FF0010B8DF82A30039537463D4615F83B
:102ACC00013B0BB1252B3ED1B7EB060A0BD053467D
:102ADC00324621464046FFF771FF013000F0A480DA
:102AEC00099B534409933B78002B00F09D800023F5
:102AFC004FF0FF32CDE90523049307938DF8533043
:102B0C001A932F46052217F8011B504800F030FA93
:102B1C00049BD0B9D90644BF20228DF853201A0744
:102B2C0044BF2B228DF853202A782A2A15D02F4601
:102B3C0000200A25079A394611F8013B303B092B36
:102B4C004DD9B8B10FE02F46B8E7404A3D46801A40
:102B5C000BFA00F018430490D3E7039A111D126886
:102B6C000391002A01DB079204E0524243F0020376
:102B7C00079204933B782E2B0CD17B782A2B33D1E4
:102B8C00039B02371A1D1B680392002BB8BF4FF032
:102B9C00FF3305932E4D03223978284600F0E8F9CF
:102BAC0038B14023401B03FA00F0049B0137034368
:102BBC0004933978062227487E1C8DF8281000F0E3
:102BCC00D7F9002838D0244B13BB039B073323F0D1
:102BDC00070308330393099B4B4409936DE705FBEB
:102BEC00023201200F46A6E700230A2519460137B9
:102BFC000593384610F8012B303A092A03D9002BDB
:102C0C00C8D00591C6E705FB012101230746F0E773
:102C1C0003AB00932246114B04A94046AFF300804E
:102C2C00B0F1FF3F8146D6D1A3895B063FF535AFA6
:102C3C0009981DB0BDE8F08F03AB00932246074BFB
:102C4C0004A9404600F082F8EAE700BF30320008E1
:102C5C00363200083A32000800000000C92900088A
:102C6C002DE9F04791461F468A680B690646934248
:102C7C00B8BF1346C9F8003091F843200C46DDF874
:102C8C00208012B10133C9F800302368990642BF85
:102C9C00D9F800300233C9F80030256815F0060564
:102CAC0007D104F1190AE368D9F800209B1AAB424A
:102CBC0029DC94F843302268003318BF01239206B4
:102CCC002ED404F1430239463046C047013021D09E
:102CDC002368E56803F00603042B18BF0025D9F818
:102CEC0000204FF0000908BFAD1AA368226908BF85
:102CFC0025EAE5759342C4BF9B1AED181A344D456D
:102D0C001AD1002008E00123524639463046C0470C
:102D1C00013003D14FF0FF30BDE8F0870135C2E739
:102D2C003020E11881F843005A1C94F845102244D5
:102D3C00023382F84310C4E7012322463946304659
:102D4C00C0470130E6D009F10109D8E72DE9F0437D
:102D5C0001F1430C0C46097E85B06E2917460646D8
:102D6C0098460C9A00F0B38022D8632936D00AD842
:102D7C00002900F0B980582900F0838004F1420545
:102D8C0084F8421032E0642901D06929F6D1206818
:102D9C001368050603F104012AD51B681160002B8A
:102DAC0003DA2D225B4284F843206F480A2239E073
:102DBC00732900F09D8008D86F2920D07029DDD1AF
:102DCC00236843F02003236003E0752917D078298A
:102DDC00D4D17823654884F8453055E0136804F164
:102DEC004205191D1B68116084F8423001238CE0E8
:102DFC001B6810F0400F116018BF1BB2CFE71368AF
:102E0C002568181D1060280601D51B6802E06806AD
:102E1C00FBD51B886F2914BF0A22082252480021B7
:102E2C0084F843106568002DA560C0F29580216878
:102E3C0021F004012160002B3DD1002D40F08E804B
:102E4C006546082A0BD12368DB0708D5236962681D
:102E5C009A42DEBF302305F8013C05F1FF35ACEB9F
:102E6C0005032361CDF800803B4603AA214630467A
:102E7C00FFF7F6FE01304DD14FF0FF3005B0BDE845
:102E8C00F083394884F84510136821681D1D1B68B0
:102E9C0015600A060BD5CA0744BF41F0200121601A
:102EAC001BB9226822F0200222601022B7E74D06DF
:102EBC0048BF9BB2EFE76546B3FBF2F102FB11335F
:102ECC00C35C05F8013D0B460029F5D1B9E7136841
:102EDC002568181D6169106028061B6801D51960EA
:102EEC0002E06A06FBD51980002365462361B9E729
:102EFC001368191D11601D6862680021284600F0D6
:102F0C0037F808B1401B606063682361002384F8C4
:102F1C004330A7E723692A4639463046C04701307B
:102F2C00AAD023689B0713D4E068039B9842B8BFD0
:102F3C001846A3E701234A4639463046C0470130BC
:102F4C009AD00135E368039A9B1AAB42F2DCEBE7AB
:102F5C00002504F11909F5E7002BACD1037804F135
:102F6C00420584F842306CE74132000852320008C6
:102F7C0010B5C9B202449042034601D1002303E0CC
:102F8C001C7801308C42F6D1184610BD10B5431E8A
:102F9C000A44914200D110BD11F8014B03F8014FC6
:102FAC00F7E7884210B501EB020307D8421E99429D
:102FBC000AD011F8014B02F8014FF8E78342F5D91A
:102FCC008118D21AD34200D110BD13F8014D01F86B
:102FDC00014DF7E738B50546002943D051F8043CBC
:102FEC000C1F002BB8BFE41800F0D0F81E4A136871
:102FFC00104633B9636014602846BDE8384000F0D1
:10300C00C6B8A3420BD921686218934201BF1A6853
:10301C005B685218226063600460EDE713465A68DF
:10302C000AB1A242FAD919685818A0420BD12068EB
:10303C000144581882421960DED11068526801446C
:10304C0019605A60D8E702D90C232B60D4E72068AA
:10305C0021188A4201BF1168526809182160626008
:10306C005C60C9E738BD00BFA800002070B5CD1C5E
:10307C0025F0030508350C2D38BF0C25002D064610
:10308C0001DBA94203D90C233360002070BD00F092
:10309C007DF8214A1468214691B9204C23681BB94C
:1030AC00304600F063F820602946304600F05EF8A8
:1030BC00431C24D10C233046336000F068F8E4E75D
:1030CC000B685B1B18D40B2B0FD90B60CC18CD5095
:1030DC00304600F05CF804F10B00231D20F00700D3
:1030EC00C31AD3D05A42E250D0E74B688C4216BF79
:1030FC00636013600C46EBE70C464968CCE7C41CD4
:10310C0024F00304A04205D0211A304600F02EF81A
:10311C000130CFD02560DBE7A8000020AC000020F8
:10312C00F8B5074614460E4621B9BDE8F8401146DD
:10313C00FFF79CBF22B9FFF74DFF25462846F8BD87
:10314C0000F026F8A0420FD221463846FFF78EFF3A
:10315C0005460028F2D031462246FFF717FF3146CC
:10316C003846FFF737FFE9E73546E7E738B5002380
:10317C00054C054608462360FFF78AF9431C02D12B
:10318C00236803B12B6038BD540200207047704790
:10319C0051F8043C181F002BBCBF0B58C0187047CB
:1031AC00F8B500BFF8BC08BC9E467047F8B500BF28
:0831BC00F8BC08BC9E467047F8
:1031C40002030405060708090A0B0C0D0E0F101064
:1031D40001020000000000000000000001020304DE
:1031E400060708090000000001020304256400002A
:1031F4004B616C6962726173692073656E736F727F
:1032040000000000436F756E7465722042616C614A
:1032140070616E0033204A616C7572006279204CD3
:1032240061706974656368003A000000232D302BD7
:103234002000686C4C0065666745464700303132B3
:10324400333435363738394142434445460030310A
:103254003233343536373839616263646566000069
:04326400310100082C
:043268000D0100084C
:10326C000100000010000000C0F9A4B0990000009B
:10327C0000A24A04FFFFFF00E803FF00200000202B
:10328C000000000000000000000000000000000032
:10329C000000000000000000000000000000000022
:1032AC000000000000000000000000000000000012
:1032BC000000000000000000000000000000000002
:1032CC0000000000000000000000000000000000F2
:1032DC0000000000000000000000000000000000E2
:04000005080028E9DE
:00000001FF
