:020000040800F2
:1000000000500020C9200008092000080B2000082B
:100010000D2000080F20000811200008000000003B
:100020000000000000000000000000001320000895
:100030001520000800000000172000081920000803
:1000400011210008112100081121000811210008C8
:1000500011210008112100081121000811210008B8
:1000600011210008112100081121000811210008A8
:100070001121000811210008112100081121000898
:100080001121000811210008212000081121000879
:100090001121000811210008112100081121000878
:1000A0001121000811210008112100081121000868
:1000B00031200008412000085120000811210008CB
:1000C0001121000811210008112100081121000848
:1000D000112100086D2000081121000811210008DD
:1000E0001121000811210008112100080000000062
:1000F0000000000000000000000000000000000000
:0C01000000000000000000005FF808F1A3
:10010C0010B5054C237833B9044B13B10448AFF345
:10011C0000800123237010BD0C00002000000000A3
:10012C005C21000808B5034B1BB103490348AFF32E
:10013C00008008BD00000000100000205C210008B9
:10014C0010B504460E4B18784FF47A73B3FBF0F3EA
:10015C000C4A1068B0FBF3F000F074FA68B90F2C7D
:10016C0001D901200AE0002221464FF0FF3000F0B7
:10017C0029FA034B5C60002000E0012010BD00BF99
:10018C00000000200800002008B5074A136843F05F
:10019C0010031360032000F003FA0020FFF7D0FFD8
:1001AC0001F03EFE002008BD00200240034A116809
:1001BC00034B1B780B441360704700BF28000020D2
:1001CC0000000020014B1868704700BF2800002079
:1001DC0038B50446FFF7F6FF0546B4F1FF3F02D0F1
:1001EC00044B1B781C44FFF7EDFF401BA042FAD3D5
:1001FC0038BD00BF000000207047704710B50446A2
:10020C0003685A6812F0200F18D01A6812F0020F07
:10021C0014D0826A12F0100F03D1826A42F4007279
:10022C0082629A6802F46022B2F5602F38D02046C0
:10023C00FFF7E2FF23686FF012021A6023685A6816
:10024C0012F0800F22D01A6812F0040F1ED0A26A8E
:10025C0012F0100F03D1A26A42F40052A2629A6803
:10026C0002F4E042B2F5E04F31D05A6812F4806FDC
:10027C0005D19A6802F46022B2F5602F24D0204692
:10028C0000F08CF923686FF00C021A6023685A682E
:10029C0012F0400F03D01B6813F0010F28D110BDD2
:1002AC00E268002AC3D15A6822F020025A60A36A7D
:1002BC0023F48073A362A36A13F4805FB7D1A36A9B
:1002CC0043F00103A362B2E7E268002AD7D15A686F
:1002DC0022F080025A60A36A23F48053A362A36ABB
:1002EC0013F4807FCBD1A36A43F00103A362C6E76A
:1002FC00A36A43F48033A3622046FFF77EFF236892
:10030C006FF001021A60CAE730B482B00023019387
:10031C0090F82430012B00F08B800246012380F8EA
:10032C0024304B68062B29D80568686B03EB8303D4
:10033C00053B1F249C4020EA04000C6804FA03F3DC
:10034C0003436B630B68092B38D91568E86803EB1A
:10035C0043031E3B07249C4020EA04008C6804FAEB
:10036C0003F30343EB600B68103B012B34D90020E3
:10037C00002382F8243002B030BC70470C2B0ED80E
:10038C000568286B03EB8303233B1F249C4020EA66
:10039C0004000C6804FA03F303432B63D2E70568EB
:1003AC00E86A03EB8303413B1F249C4020EA0400D2
:1003BC000C6804FA03F30343EB62C3E7156828697E
:1003CC0003EB430307249C4020EA04008C6804FAE6
:1003DC0003F303432B61C6E713681648834205D029
:1003EC00936A43F0200393620120C1E7986810F4EC
:1003FC00000F1BD1986840F4000098600B68102B1C
:10040C0001D00020B4E70C4B1B680C49A1FB031373
:10041C009B0C03EB83035900019102E0019B013B10
:10042C000193019B002BF9D10020A1E700209FE74D
:10043C000220A0E7002401400800002083DE1B43BB
:10044C0038B503689A6812F0010F01D1002038BD4D
:10045C0004469A6822F001029A60FFF7B3FE054643
:10046C0023689B6813F0010F0ED0FFF7ABFE401B07
:10047C000228F5D9A36A43F01003A362E36A43F0A0
:10048C000103E3620120E2E70020E0E700287FD0CF
:10049C0038B50446836A002B33D02046FFF7D0FFD3
:1004AC00A36A13F010036DD100286BD1A26A22F459
:1004BC00885222F0020242F00202A2626268E169F2
:1004CC000A43E56842EA4502A168B1F5807F21D074
:1004DC0001291CD0616901291FD02568696821F4A4
:1004EC0069410B436B6021688D682A4B2B40134389
:1004FC008B60A368B3F5807F20D0012B1ED0002128
:10050C001FE0C36280F8243001F0ACFCC5E74FF467
:10051C008073DFE74FF48073DCE735B9A1690139EB
:10052C0043EA413343F40063D7E7A16A41F0200169
:10053C00A162E16A41F00101E162CEE72369013B6E
:10054C0019052568EB6A23F470030B43EB622368EF
:10055C009968114B0B409A420BD0A36A23F01203FB
:10056C0043F01003A362E36A43F00103E36201204A
:10057C000DE00023E362A36A23F0030343F00103BD
:10058C00A36204E0A36A43F01003A362012038BD08
:10059C0001207047FDF7E1FFFE0E1FFF70470000C2
:1005AC00074AD36823F4E0631B041B0C000200F41D
:1005BC00E060184340F0BF6040F40030D0607047FA
:1005CC0000ED00E030B4174BDB68C3F30223C3F13A
:1005DC000704042C28BF04241D1D062D18D9033B29
:1005EC004FF0FF3505FA04F421EA0401994005FAAD
:1005FC0003F322EA0303194300280BDB0901C9B2F8
:10060C0000F1604000F5614080F8001330BC704789
:10061C000023E5E700F00F000901C9B2024B1954A1
:10062C00F4E700BF00ED00E014ED00E000F01F0265
:10063C00400901239340024A42F82030704700BF22
:10064C0000E100E00138B0F1807F0AD2064B58601F
:10065C00064AF02182F823100020986007221A60C5
:10066C0070470120704700BF10E000E000ED00E093
:10067C0008B590F82130022B03D0042383630120AA
:10068C0008BD0268136823F00E0313600268136838
:10069C0023F0010313600368194A934214D01432F7
:1006AC0093421FD0143293421ED0143293421ED068
:1006BC00143293421ED01432934202D04FF0807207
:1006CC0003E04FF4801200E001220E4B5A6001232C
:1006DC0080F82130002380F82030436B6BB19847B1
:1006EC000020CDE71022F0E74FF48072EDE74FF4D5
:1006FC008052EAE74FF48032E7E70020C0E700BF02
:10070C000800024000000240F0B482B000263546DA
:10071C00A1E0002C59D0012C00D1CE68FF2B68D859
:10072C008446FF2B68D8AC00DCF800200F27A740CC
:10073C0022EA070206FA04F42243CCF800204A68A5
:10074C0012F0805F00F086805E4A946944F00104E8
:10075C009461926902F001020192019AAC08A71C03
:10076C00594A52F8272005F00307BF004FF00F0C31
:10077C000CFA07FC22EA0C0C544A904242D002F5C7
:10078C00806290427FD002F5806290427DD002F56B
:10079C008062904234D0042235E04D4FBC4214D0DC
:1007AC000BD94C4FBC4210D007F58037BC420CD053
:1007BC00A7F58017BC42B1D107E0A7F58017BC4262
:1007CC0003D007F58037BC42A8D18C687CB1012CD2
:1007DC0008D042610826A1E7CE6808369EE7CE68AD
:1007EC000C369BE70261082698E7002696E704265C
:1007FC0094E700F1040C94E7A5F10804A40093E736
:10080C00032200E00022BA4042EA0C0202342E4FCE
:10081C0047F824204A6812F4803F38D02E4C2268C6
:10082C001A4322604A6812F4003F36D02A4C6268A0
:10083C001A4362604A6812F4801F34D0264CA268B6
:10084C001A43A2604A6812F4001F32D0224CE268AC
:10085C001343E36001350F2D31D80122AA400B68F8
:10086C0013409A42F6D14C68122CB8D095D8022C71
:10087C00B2D07FF64EAF032CB7D0112C7FF44EAF15
:10088C00CE6804364AE70122BDE70222BBE7124CD0
:10089C00226822EA03022260C4E70F4C626822EA53
:1008AC0003026260C6E70C4CA26822EA0302A26053
:1008BC00C8E7094CE26822EA0303E360CAE702B026
:1008CC00F0BC7047001002400000014000080140DD
:1008DC0000002110000031100004014012B909047D
:1008EC000161704701617047C3685940C16070472E
:1008FC0082B0084B1B68084AA2FB03235B0A00FB6F
:10090C0003F0019000BF019B5A1E0192002BF9D1FC
:10091C0002B0704708000020D34D621070B582B051
:10092C000446036813F0010F2CD0AB4B5B6803F04B
:10093C000C03042B1DD0A84B5B6803F00C03082B95
:10094C0012D06368B3F5803F41D0002B55D103F131
:10095C00804303F504331A6822F480321A601A6853
:10096C0022F480221A6037E09B4B5B6813F4803FC3
:10097C00E7D0994B1B6813F4003F03D06368002B3E
:10098C0000F0AE81236813F0020F76D0924B5B68B7
:10099C0013F00C0F5FD0904B5B6803F00C03082B2B
:1009AC0054D02369002B00F08A808C4B01221A60F2
:1009BC00FFF708FC0546884B1B6813F0020F75D136
:1009CC00FFF700FC401B0228F5D903208BE1824A7B
:1009DC00136843F480331360636843B3FFF7F2FB8F
:1009EC0005467D4B1B6813F4003FCBD1FFF7EAFBA8
:1009FC00401B6428F5D9032075E1B3F5A02F09D06D
:100A0C00754B1A6822F480321A601A6822F480221C
:100A1C001A60E1E703F18043A3F53C331A6842F412
:100A2C0080221A601A6842F480321A60D4E7FFF709
:100A3C00C9FB0546684B1B6813F4003FA2D0FFF7B7
:100A4C00C1FB401B6428F5D903204CE1624B5B6869
:100A5C0013F4803FA5D1604B1B6813F0020F04D038
:100A6C002369012B01D001203DE15B4A136823F07F
:100A7C00F803616943EAC1031360236813F0080F9C
:100A8C0032D0A369002B5BD0554B01221A60FFF7C3
:100A9C0099FB0546504B5B6A13F0020F21D1FFF70F
:100AAC0091FB401B0228F5D903201CE14A4A13682C
:100ABC0023F0F803616943EAC1031360DDE7474B98
:100ACC0000221A60FFF77EFB0546434B1B6813F0B0
:100ADC00020FD2D0FFF776FB401B0228F5D903207A
:100AEC0001E10120FFF704FF236813F0040F00F06D
:100AFC009780394BDB6913F0805F33D1364BDA6961
:100B0C0042F08052DA61DB6903F080530193019B60
:100B1C000125344B1B6813F4807F25D0E368012B2F
:100B2C0036D0002B4CD103F1804303F504331A6A01
:100B3C0022F001021A621A6A22F004021A622CE0F4
:100B4C00274B00221A60FFF73DFB0546224B5B6AE0
:100B5C0013F0020FC8D0FFF735FB401B0228F5D964
:100B6C000320C0E00025D4E71E4A136843F48073C9
:100B7C001360FFF727FB06461A4B1B6813F4807FA4
:100B8C00CCD1FFF71FFB801B6428F5D90320AAE00A
:100B9C00114A136A43F001031362E36873B3FFF75E
:100BAC0011FB06460C4B1B6A13F0020F37D1FFF7F3
:100BBC0009FB801B41F288339842F3D9032092E061
:100BCC00052B11D0044B1A6A22F001021A621A6A20
:100BDC0022F004021A62E0E70010024000004242D8
:100BEC008004424200700040414B1A6A42F00402F9
:100BFC001A621A6A42F001021A62CEE7FFF7E2FAB1
:100C0C0006463B4B1B6A13F0020F08D0FFF7DAFACB
:100C1C00801B41F288339842F3D9032063E0E5B995
:100C2C00E369002B5ED0324A526802F00C02082AAB
:100C3C005BD0022B17D02F4B00221A60FFF7C2FAA1
:100C4C0004462B4B1B6813F0007F47D0FFF7BAFA12
:100C5C00001B0228F5D9032045E0254AD36923F06F
:100C6C008053D361DCE7234B00221A60FFF7AAFA0A
:100C7C0005461F4B1B6813F0007F06D0FFF7A2FA46
:100C8C00401B0228F5D903202DE0236AB3F5803FE1
:100C9C001AD017494B6823F47413226A606A024312
:100CAC0013434B60134B01221A60FFF78BFA044677
:100CBC000F4B1B6813F0007F0ED1FFF783FA001B5C
:100CCC000228F5D903200EE0094A536823F40033B7
:100CDC00A1680B435360DCE7002004E0002002E035
:100CEC00012000E0002002B070BD0120FBE700BF36
:100CFC00001002406000424210B487B0164C94E8D9
:100D0C000F000DF1180C0CE90F00238AADF804301C
:100D1C00124B5B6803F00C02082A1AD1C3F383420E
:100D2C00624412F8102C13F4803F05D10C4800FBE0
:100D3C0002F007B010BC7047084B5B68C3F340432C
:100D4C00634413F8143C074800FB02F0B0FBF3F0CB
:100D5C00EFE70448EDE700BF7421000800100240E3
:100D6C0000093D0000127A00624B1B6803F0070378
:100D7C008B420CD25F4A136823F007030B431360BA
:100D8C00136803F007038B4201D00120704770B544
:100D9C00036813F0020F17D013F0040F04D0564A57
:100DAC00536843F4E0635360036813F0080F04D0F6
:100DBC00514A536843F4605353604F4A536823F0CD
:100DCC00F0038468234353600D460446036813F014
:100DDC00010F52D04368012B23D0022B28D0464A56
:100DEC00126812F0020F00F0828043494A6822F028
:100DFC00030213434B60FFF7E5F906466368012BCA
:100E0C001DD0022B2AD03C4B5B6813F00C0F34D056
:100E1C00FFF7D8F9801B41F288339842F3D90320AD
:100E2C0064E0354A126812F4003FDED101205DE027
:100E3C00314A126812F0007FD7D1012056E02E4BB8
:100E4C005B6803F00C03042B17D0FFF7BBF9801B76
:100E5C0041F288339842F2D9032047E0264B5B6875
:100E6C0003F00C03082B08D0FFF7ACF9801B41F200
:100E7C0088339842F2D9032038E01E4B1B6803F0EC
:100E8C000703AB420CD91B4A136823F007032B430F
:100E9C001360136803F00703AB4201D0012025E077
:100EAC00236813F0040F06D0134A536823F4E0634D
:100EBC00E1680B435360236813F0080F07D00E4A08
:100ECC00536823F46053216943EAC1035360FFF76D
:100EDC0013FF094B5B68C3F30313084AD35CD84078
:100EEC00074B18600020FFF72BF9002070BD012084
:100EFC00FCE700BF002002400010024088210008DF
:100F0C0008000020014B1868704700BF0800002043
:100F1C0008B5FFF7F7FF044B5B68C3F30223034AE2
:100F2C00D35CD84008BD00BF0010024098210008D7
:100F3C0008B5FFF7E7FF044B5B68C3F3C223034A12
:100F4C00D35CD84008BD00BF0010024098210008B7
:100F5C0070B582B00446036813F0010F34D03E4BD9
:100F6C00DB6913F0805F48D13B4BDA6942F0805269
:100F7C00DA61DB6903F080530193019B0125374B48
:100F8C001B6813F4807F3AD0334B1B6A13F4407305
:100F9C0011D0626802F440729A420CD02E4A136A45
:100FAC0023F440702E4901260E6000260E6010625C
:100FBC0013F0010F37D1284A136A23F44073616888
:100FCC000B431362002D3FD1236813F0020F06D0A0
:100FDC00214A536823F44043A1680B4353602368B0
:100FEC0013F0100F35D01C4A536823F48003E168CA
:100FFC000B435360002002B070BD0025BFE7174AB9
:10100C00136843F480731360FFF7DCF80646134B48
:10101C001B6813F4807FB7D1FFF7D4F8801B6428CA
:10102C00F5D90320E7E7FFF7CDF806460A4B1B6A14
:10103C0013F0020FBFD1FFF7C5F8801B41F28833C4
:10104C009842F3D90320D6E7D36923F08053D361B8
:10105C00BAE70020CFE700BF00100240007000404C
:10106C004004424210B4036A046A24F0010404628E
:10107C00846924F0F00444EA021223F00A030B43BF
:10108C008261036210BC704710B4036A23F0100332
:10109C0003628469036A24F4704444EA023223F044
:1010AC00A00343EA01138261036210BC704783689A
:1010BC0023F0700341F0070119438160704710B4AD
:1010CC00846824F47F4442EA03230B432343836064
:1010DC0010BC70470268D36843F00103D360026808
:1010EC00136843F0010313600020704790F83C3004
:1010FC00012B7DD010B50446012380F83C3002232F
:10110C0080F83D300268936823F47F4323F0770323
:10111C0093600B68402B57D010D9702B3ED01FD842
:10112C00502B47D0602B32D1CA6849680068FFF752
:10113C00ABFF60212068FFF7BAFF28E0102B4DD0E1
:10114C0008D9202B4FD0302B21D130210068FFF74C
:10115C00AEFF1CE0DBB900210068FFF7A8FF16E02A
:10116C00B3F5805F0ED0B3F5005F10D1CB684A6841
:10117C0089680068FFF7A3FF2268936843F48043F3
:10118C00936004E00268936823F0070393600123E3
:10119C0084F83D30002084F83C0010BDCB684A68D0
:1011AC0089680068FFF78BFF2268936843F0770328
:1011BC009360ECE7CA6849680068FFF753FF502159
:1011CC002068FFF774FFE2E7CA6849680068FFF718
:1011DC0049FF40212068FFF76AFFD8E7102100681B
:1011EC00FFF765FFD3E720210068FFF760FFCEE72C
:1011FC00022070477047704770477047704710B5B2
:10120C00044603681A6912F0020F11D0DA6812F062
:10121C00020F0DD06FF002021A61012303770368ED
:10122C009B6913F0030F70D0FFF7E6FF00232377C1
:10123C0023681A6912F0040F12D0DA6812F0040F46
:10124C000ED06FF004021A610223237723689B6986
:10125C0013F4407F5FD02046FFF7CEFF00232377A7
:10126C0023681A6912F0080F12D0DA6812F0080F0E
:10127C000ED06FF008021A61042323772368DB6910
:10128C0013F0030F4ED02046FFF7B6FF0023237751
:10129C0023681A6912F0100F12D0DA6812F0100FCE
:1012AC000ED06FF010021A61082323772368DB69D4
:1012BC0013F4407F3DD02046FFF79EFF0023237799
:1012CC0023681A6912F0010F03D0DA6812F0010FCB
:1012DC0036D123681A6912F0800F03D0DA6812F045
:1012EC00800F34D123681A6912F0400F03D0DA68EA
:1012FC0012F0400F32D123681A6912F0200F03D07C
:10130C00DA6812F0200F30D110BDFFF774FF2046C1
:10131C00FFF773FF8AE72046FFF76DFF2046FFF7C4
:10132C006CFF9BE72046FFF766FF2046FFF765FF43
:10133C00ACE72046FFF75FFF2046FFF75EFFBDE7F7
:10134C006FF001021A612046FFF754FFC1E76FF0FE
:10135C0080021A61204600F08CF8C3E76FF040025F
:10136C001A612046FFF74AFFC5E76FF020021A61A9
:10137C00204600F07DF8C7E703681B4A90420AD06C
:10138C00B0F1804F07D0A2F59432904203D002F511
:10139C008062904203D123F070034A681343124ACF
:1013AC0090420AD0B0F1804F07D0A2F5943290420F
:1013BC0003D002F58062904203D123F44073CA68D3
:1013CC00134323F080034A69134303608B68C362A1
:1013DC000B688362044B984202D00123436170472F
:1013EC000B690363F9E700BF002C0140A8B110B5ED
:1013FC00044690F83D305BB1022384F83D30211D4A
:10140C002068FFF7B9FF012384F83D30002010BDA0
:10141C0080F83C3000F05EFDEEE70120704790F85C
:10142C003C30012B22D030B4012280F83C20022326
:10143C0080F83D300468636823F0700363600468CF
:10144C0063680D682B4363600468A36823F0800312
:10145C00A3600468A36849680B43A36080F83D202F
:10146C00002380F83C30184630BC7047022070478F
:10147C00704770470268D36823F49073D360026896
:10148C00536923F001035361202380F83A307047ED
:10149C0090F83930DBB2212B2AD18368B3F5805F09
:1014AC0016D0036A5A1C02621A7803685A60C38CFD
:1014BC00013B9BB2C384EBB90268D36823F0800371
:1014CC00D3600268D36843F04003D36000207047B8
:1014DC00036A1B880268C3F30803536003691BB9D2
:1014EC00036A02330362E2E7036A01330362DEE755
:1014FC0002207047002070472DE9F843054602682A
:10150C00136923F44053C1680B4313618368026968
:10151C001343426913430168CA6822F4B05222F0A3
:10152C000C021343CB600268536923F44073816946
:10153C000B4353610268594B9A4257D0FFF7E8FCB2
:10154C0000EB800000EB80006C68A400B0FBF4F4AE
:10155C00534FA7FB043464092601FFF7D9FC00EBB9
:10156C00800000EB80006C68A400B0FBF4F9FFF77E
:10157C00CFFC00EB800000EB80006C68A400B0FB9B
:10158C00F4F4A7FB043464094FF0640808FB1494CA
:10159C0024013234A7FB0434640904F0F00434440D
:1015AC00FFF7B6FC00EB800000EB80006E68B60025
:1015BC00B0FBF6F6FFF7ACFC00EB800000EB800014
:1015CC006B689B00B0FBF3F0A7FB0030400908FBF5
:1015DC0010684FEA081808F13208A7FB0837C7F360
:1015EC0043172B6827449F60BDE8F883FFF7A0FCE6
:1015FC0000EB800000EB80006C68A400B0FBF4F4FE
:10160C00274FA7FB043464092601FFF791FC00EB7C
:10161C00800000EB80006C68A400B0FBF4F9FFF7CD
:10162C0087FC00EB800000EB80006C68A400B0FB32
:10163C00F4F4A7FB043464094FF0640808FB149419
:10164C0024013234A7FB0434640904F0F00434445C
:10165C00FFF76EFC00EB800000EB80006E68B600BC
:10166C00B0FBF6F6FFF764FC00EB800000EB8000AB
:10167C006B689B00B0FBF3F0A7FB0030400908FB44
:10168C0010684FEA081808F13208A7FB0837C7F3AF
:10169C0043172B6827449F60A6E700BF0038014022
:1016AC001F85EB5158B310B5044690F839300BB385
:1016BC00242384F839302268D36823F40053D36090
:1016CC002046FFF719FF2268136923F49043136136
:1016DC002268536923F02A0353612268D36843F4C8
:1016EC000053D3600020E063202384F8393084F861
:1016FC003A3010BD80F8383000F03CFCD8E70120BF
:10170C007047704708B50168CB6823F04003CB6085
:10171C00202380F83930FFF7F4FF002008BD704714
:10172C0008B590F83A30DBB2222B45D18368B3F57B
:10173C00805F0ED0036903BB03685A68836A591C27
:10174C0081621A70C38D013B9BB2C385F3B100203B
:10175C0033E0826A036943B903685B68C3F3080327
:10176C001380836A02338362ECE703685B68DBB245
:10177C001380836A01338362E4E703685B68826ADF
:10178C00511C816203F07F031370DBE70268D3689E
:10179C0023F02003D3600268D36823F48073D360F2
:1017AC000268536923F001035361202380F83A3017
:1017BC00FFF7B5FF002000E0022008BD70470000D5
:1017CC0010B5044602681368D168526913F00F0013
:1017DC0005D113F0200F02D011F0200F53D10028A7
:1017EC0067D012F0010202D111F4907F61D013F096
:1017FC00010F06D011F4807F03D0E06B40F00100A4
:10180C00E06313F0040F04D01AB1E06B40F0020057
:10181C00E06313F0020F04D01AB1E06B40F0040047
:10182C00E06313F0080F04D01AB1E26B42F0080227
:10183C00E263E26B002A48D013F0200F02D011F0C3
:10184C00200F24D123685B6903F04003E26B12F094
:10185C00080F00D13BB32046FFF70CFE23685A69F2
:10186C0012F0400F1BD05A6922F040025A61636B90
:10187C008BB11A4A5A63606BFEF7FAFE28B3606BA1
:10188C00436B984721E02046FFF74AFF1DE02046B6
:10189C00FFF746FFD6E72046FFF790FF15E02046FE
:1018AC00FFF78CFF11E02046FFF788FF0023E3636E
:1018BC000BE013F0800F02D011F0800F06D113F063
:1018CC00400F02D011F0400F04D110BD2046FFF79D
:1018DC00DFFDFAE72046FFF715FFF6E7ED180008E5
:1018EC0008B5406A0023C385C384FFF767FF08BDB2
:1018FC0038B5044600F001024FF400410C48FEF7E5
:10190C00EDFF0C4DC4F340024FF480712846FEF7F6
:10191C00E5FFC4F380024FF400612846FEF7DEFFBA
:10192C00C4F3C0024FF480512846FEF7D7FF38BDF0
:10193C00000C01400008014038B504460D46002259
:10194C004FF400511E48FEF7C9FF8CBB00224FF428
:10195C0080511B48FEF7C2FF2809FFF7C9FF184C3E
:10196C0001224FF480412046FEF7B8FF0120FEF71C
:10197C002FFC00224FF480412046FEF7AFFF0120E0
:10198C00FEF726FC2846FFF7B3FF01224FF48041F7
:10199C002046FEF7A3FF0120FEF71AFC00224FF4AD
:1019AC0080412046FEF79AFF0120FEF711FC38BD5E
:1019BC0001224FF480510248FEF790FFCCE700BFA4
:1019CC00000C014010B5044603E001340120FFF780
:1019DC00B3FF21780029F8D110BD38B505460C4667
:1019EC0031B1012C0AD0022C0FD0032C14D038BDED
:1019FC0080F080010020FFF79FFFF2E7A5F1400186
:101A0C00C9B20020FFF798FFEDE7A5F16C01C9B250
:101A1C000020FFF791FFE8E7A5F12C01C9B20020E7
:101A2C00FFF78AFFE3E708B501210020FFF784FFE9
:101A3C0008BD000008B500224FF400510C48FEF719
:101A4C004DFF33210020FFF777FF32210020FFF7F5
:101A5C0073FF28210020FFF76FFF0C210020FFF7F8
:101A6C006BFF06210020FFF767FFFFF7DCFF08BDC7
:101A7C00000C014070B50646072413E046FA04F248
:101A8C000F4D02F0010240212846FEF727FF0122EC
:101A9C0080212846FEF722FF002280212846FEF7EF
:101AAC001DFF013C002CE9DA064C012211462046B0
:101ABC00FEF714FF002201212046FEF70FFF70BD38
:101ACC0000080140000C01402DE9F04389B00024CE
:101ADC000494059406940794334B9A6942F01002CF
:101AEC009A619A6902F010020092009A9A6942F087
:101AFC0020029A619A6902F020020192019A9A6975
:101B0C0042F004029A619A6902F004020292029A6B
:101B1C009A6942F008029A619B6903F008030393E7
:101B2C00039B224F22464FF400513846FEF7D6FE57
:101B3C00DFF87C9022464FF4CE514846FEF7CEFE9D
:101B4C00DFF8708022464FF683414046FEF7C6FE12
:101B5C004FF400530493012505950694022607962D
:101B6C0004A93846FEF7D0FD4FF440430493059486
:101B7C00069504A93846FEF7C7FD4FF4CE530493DF
:101B8C0005950694079604A94846FEF7BDFD4FF649
:101B9C008343049305950694079604A94046FEF7E3
:101BAC00B3FD09B0BDE8F083001002400010014005
:101BBC0000080140000C014070B584B0002501956F
:101BCC00029503950B4C0C4B2360A560E560656199
:101BDC004FF46023E3616560012626612046FEF721
:101BEC0055FC01950296039501A92046FEF78CFB46
:101BFC0004B070BDAC0000200024014008B50848BA
:101C0C00084B03604FF41653436000238360C3609A
:101C1C0003610C2242618361C361FFF743FD08BD80
:101C2C00DC0000200038014030B587B0002402945D
:101C3C00039404940594009401940E4D4FF080434A
:101C4C002B6048F69F436B60AC60EC602C61AC6120
:101C5C002846FFF7CBFB4FF48053029302A928468A
:101C6C00FFF744FA0094019469462846FFF7D7FB26
:101C7C0007B030BD1C01002030B587B000240294A1
:101C8C00039404940594009401940E4D0E4B2B6018
:101C9C0048F69F436B60AC60C823EB602C61AC6171
:101CAC002846FFF7A3FB4FF48053029302A9284662
:101CBC00FFF71CFA0094019469462846FFF7AFFB26
:101CCC0007B030BD2C0000200008004030B587B0B4
:101CDC0000240294039404940594009401940E4DF2
:101CEC000E4B2B6048F69F436B60AC60EC602C6134
:101CFC00AC612846FFF77AFB4FF48053029302A99C
:101D0C002846FFF7F3F90094019469462846FFF73B
:101D1C0086FB07B030BD00BF6C0000200004004003
:101D2C0030B595B000240C940D940F941094059438
:101D3C0006940794089409940194029403940494CF
:101D4C0001220A924FF480330B930E9202251195C7
:101D5C0012934FF4E01313930AA8FEF7DFFD0F2341
:101D6C000593069507944FF48063089309942946CC
:101D7C0005A8FEF7F9FF01954FF40043039301A862
:101D8C00FFF7E6F815B030BD08B5FEF7FDF9FFF723
:101D9C00C7FFFFF799FEFFF70FFFFFF72FFFFFF7C6
:101DAC0043FFFFF769FFFFF791FF1A48FFF792F91E
:101DBC00FFF740FE00210846FFF70FFE1648FFF71D
:101DCC0001FE4FF47A70FEF703FAF920FFF752FE8A
:101DDC00124C012202212046FEF780FD0120FEF765
:101DEC00F7F9002202212046FEF778FD5420FFF778
:101DFC0041FE01224FF480612046FEF76FFD012069
:101E0C00FEF7E6F900224FF480612046FEF766FDEE
:101E1C00DBE700BF2C000020A0210008000C0140D3
:101E2C0082B00E4B9A6942F001029A619A6902F0F3
:101E3C0001020092009ADA6942F08052DA61DB69A1
:101E4C0003F080530193019B054A536823F0E06330
:101E5C0043F00073536002B0704700BF00100240A3
:101E6C000000014000B587B0002302930393049354
:101E7C0005930268154B9A4202D007B05DF804FB3B
:101E8C0003F56C439A6942F400729A619A6902F400
:101E9C0000720092009A9A6942F004029A619B695E
:101EAC0003F004030193019B072302930323039381
:101EBC0002A90748FEF728FC002211461220FEF763
:101ECC0081FB1220FEF7B2FBD7E700BF00240140D4
:101EDC000008014000B585B00368B3F1804F08D00D
:101EEC00214A934219D0214A934229D005B05DF87A
:101EFC0004FB03F50433DA6942F00102DA61DB69B1
:101F0C0003F001030193019B002211461C20FEF7F4
:101F1C0059FB1C20FEF78AFBE8E7154BDA6942F007
:101F2C000202DA61DB6903F002030293029B0022D6
:101F3C0011461D20FEF746FB1D20FEF777FBD5E76B
:101F4C000B4BDA6942F00402DA61DB6903F004033B
:101F5C000393039B002211461E20FEF733FB1E2029
:101F6C00FEF764FBC2E700BF00040040000800401D
:101F7C000010024030B587B0002302930393049302
:101F8C00059302681B4B9A4201D007B030BD03F594
:101F9C0058439A6942F480429A619A6902F48042E9
:101FAC000092009A9A6942F004029A619B6903F0CC
:101FBC0004030193019B4FF40073029302230393D8
:101FCC00032305930C4D02A92846FEF79DFB4FF405
:101FDC008063029300240394049402A92846FEF71C
:101FEC0093FB224621462520FEF7ECFA2520FEF72E
:101FFC001DFBCAE700380140000801407047FEE7AE
:10200C00FEE7FEE7FEE770477047704708B5FEF73E
:10201C00CDF808BD08B50248FEF7F0F808BD00BFC2
:10202C00AC00002008B50248FFF7E9F808BD00BF76
:10203C001C01002008B50248FFF7E1F808BD00BFFD
:10204C006C00002008B50448FFF7D9F84FF4005194
:10205C000248FEF749FC08BD2C000020001001408E
:10206C0008B50248FFF7ACFB08BD00BFDC00002040
:10207C000F4B1A6842F001021A6059680D4A0A4067
:10208C005A601A6822F0847222F480321A601A683C
:10209C0022F480221A605A6822F4FE025A604FF42D
:1020AC001F029A60044B4FF000629A60704700BFA9
:1020BC00001002400000FFF800ED00E0002103E0FA
:1020CC000B4B5B58435004310A480B4B42189A4255
:1020DC00F6D30A4A02E0002342F8043B084B9A422A
:1020EC00F9D3FFF7C5FF00F00FF8FFF74DFE70476F
:1020FC00AC210008000000200C0000200C00002087
:10210C005C010020FEE7000070B500250C4E0D4C64
:10211C00A41BA410A54209D100F01AF800250A4E00
:10212C000A4CA41BA410A54205D170BD56F825304D
:10213C0098470135EEE756F8253098470135F2E718
:10214C00A4210008A4210008A4210008A82100084B
:10215C00F8B500BFF8BC08BC9E467047F8B500BF88
:08216C00F8BC08BC9E46704758
:1021740002030405060708090A0B0C0D0E0F1010C4
:10218400010200000000000000000000010203043E
:10219400060708090000000001020304313233007D
:0421A40031010008FD
:0421A8000D0100081D
:0C21AC00010000001000000000A24A0426
:04000005080020C906
:00000001FF
